{
  "_format": "hh-sol-artifact-1",
  "contractName": "Domains",
  "sourceName": "contracts/Domains.sol",
  "abi": [
    {
      "inputs": [
        {
          "internalType": "string",
          "name": "_tld",
          "type": "string"
        }
      ],
      "stateMutability": "payable",
      "type": "constructor"
    },
    {
      "inputs": [],
      "name": "AlreadyRegistered",
      "type": "error"
    },
    {
      "inputs": [
        {
          "internalType": "string",
          "name": "name",
          "type": "string"
        }
      ],
      "name": "InvalidName",
      "type": "error"
    },
    {
      "inputs": [],
      "name": "Unauthorized",
      "type": "error"
    },
    {
      "anonymous": false,
      "inputs": [
        {
          "indexed": true,
          "internalType": "address",
          "name": "owner",
          "type": "address"
        },
        {
          "indexed": true,
          "internalType": "address",
          "name": "approved",
          "type": "address"
        },
        {
          "indexed": true,
          "internalType": "uint256",
          "name": "tokenId",
          "type": "uint256"
        }
      ],
      "name": "Approval",
      "type": "event"
    },
    {
      "anonymous": false,
      "inputs": [
        {
          "indexed": true,
          "internalType": "address",
          "name": "owner",
          "type": "address"
        },
        {
          "indexed": true,
          "internalType": "address",
          "name": "operator",
          "type": "address"
        },
        {
          "indexed": false,
          "internalType": "bool",
          "name": "approved",
          "type": "bool"
        }
      ],
      "name": "ApprovalForAll",
      "type": "event"
    },
    {
      "anonymous": false,
      "inputs": [
        {
          "indexed": true,
          "internalType": "address",
          "name": "from",
          "type": "address"
        },
        {
          "indexed": true,
          "internalType": "address",
          "name": "to",
          "type": "address"
        },
        {
          "indexed": true,
          "internalType": "uint256",
          "name": "tokenId",
          "type": "uint256"
        }
      ],
      "name": "Transfer",
      "type": "event"
    },
    {
      "inputs": [
        {
          "internalType": "address",
          "name": "to",
          "type": "address"
        },
        {
          "internalType": "uint256",
          "name": "tokenId",
          "type": "uint256"
        }
      ],
      "name": "approve",
      "outputs": [],
      "stateMutability": "nonpayable",
      "type": "function"
    },
    {
      "inputs": [
        {
          "internalType": "string",
          "name": "",
          "type": "string"
        }
      ],
      "name": "avatars",
      "outputs": [
        {
          "internalType": "string",
          "name": "",
          "type": "string"
        }
      ],
      "stateMutability": "view",
      "type": "function"
    },
    {
      "inputs": [
        {
          "internalType": "address",
          "name": "owner",
          "type": "address"
        }
      ],
      "name": "balanceOf",
      "outputs": [
        {
          "internalType": "uint256",
          "name": "",
          "type": "uint256"
        }
      ],
      "stateMutability": "view",
      "type": "function"
    },
    {
      "inputs": [
        {
          "internalType": "string",
          "name": "",
          "type": "string"
        }
      ],
      "name": "discords",
      "outputs": [
        {
          "internalType": "string",
          "name": "",
          "type": "string"
        }
      ],
      "stateMutability": "view",
      "type": "function"
    },
    {
      "inputs": [
        {
          "internalType": "string",
          "name": "",
          "type": "string"
        }
      ],
      "name": "domains",
      "outputs": [
        {
          "internalType": "address",
          "name": "",
          "type": "address"
        }
      ],
      "stateMutability": "view",
      "type": "function"
    },
    {
      "inputs": [
        {
          "internalType": "string",
          "name": "",
          "type": "string"
        }
      ],
      "name": "favNFTs",
      "outputs": [
        {
          "internalType": "string",
          "name": "",
          "type": "string"
        }
      ],
      "stateMutability": "view",
      "type": "function"
    },
    {
      "inputs": [
        {
          "internalType": "string",
          "name": "",
          "type": "string"
        }
      ],
      "name": "favSongs",
      "outputs": [
        {
          "internalType": "string",
          "name": "",
          "type": "string"
        }
      ],
      "stateMutability": "view",
      "type": "function"
    },
    {
      "inputs": [
        {
          "internalType": "string",
          "name": "name",
          "type": "string"
        }
      ],
      "name": "getAddress",
      "outputs": [
        {
          "internalType": "address",
          "name": "",
          "type": "address"
        }
      ],
      "stateMutability": "view",
      "type": "function"
    },
    {
      "inputs": [],
      "name": "getAllNames",
      "outputs": [
        {
          "internalType": "string[]",
          "name": "",
          "type": "string[]"
        }
      ],
      "stateMutability": "view",
      "type": "function"
    },
    {
      "inputs": [
        {
          "internalType": "uint256",
          "name": "tokenId",
          "type": "uint256"
        }
      ],
      "name": "getApproved",
      "outputs": [
        {
          "internalType": "address",
          "name": "",
          "type": "address"
        }
      ],
      "stateMutability": "view",
      "type": "function"
    },
    {
      "inputs": [
        {
          "internalType": "string",
          "name": "name",
          "type": "string"
        }
      ],
      "name": "getAvatar",
      "outputs": [
        {
          "internalType": "string",
          "name": "",
          "type": "string"
        }
      ],
      "stateMutability": "view",
      "type": "function"
    },
    {
      "inputs": [
        {
          "internalType": "string",
          "name": "name",
          "type": "string"
        }
      ],
      "name": "getDiscord",
      "outputs": [
        {
          "internalType": "string",
          "name": "",
          "type": "string"
        }
      ],
      "stateMutability": "view",
      "type": "function"
    },
    {
      "inputs": [
        {
          "internalType": "string",
          "name": "name",
          "type": "string"
        }
      ],
      "name": "getFavNFT",
      "outputs": [
        {
          "internalType": "string",
          "name": "",
          "type": "string"
        }
      ],
      "stateMutability": "view",
      "type": "function"
    },
    {
      "inputs": [
        {
          "internalType": "string",
          "name": "name",
          "type": "string"
        }
      ],
      "name": "getFavSong",
      "outputs": [
        {
          "internalType": "string",
          "name": "",
          "type": "string"
        }
      ],
      "stateMutability": "view",
      "type": "function"
    },
    {
      "inputs": [
        {
          "internalType": "string",
          "name": "name",
          "type": "string"
        }
      ],
      "name": "getRecord",
      "outputs": [
        {
          "internalType": "string",
          "name": "",
          "type": "string"
        }
      ],
      "stateMutability": "view",
      "type": "function"
    },
    {
      "inputs": [
        {
          "internalType": "string",
          "name": "name",
          "type": "string"
        }
      ],
      "name": "getTwitter",
      "outputs": [
        {
          "internalType": "string",
          "name": "",
          "type": "string"
        }
      ],
      "stateMutability": "view",
      "type": "function"
    },
    {
      "inputs": [
        {
          "internalType": "address",
          "name": "owner",
          "type": "address"
        },
        {
          "internalType": "address",
          "name": "operator",
          "type": "address"
        }
      ],
      "name": "isApprovedForAll",
      "outputs": [
        {
          "internalType": "bool",
          "name": "",
          "type": "bool"
        }
      ],
      "stateMutability": "view",
      "type": "function"
    },
    {
      "inputs": [],
      "name": "isOwner",
      "outputs": [
        {
          "internalType": "bool",
          "name": "",
          "type": "bool"
        }
      ],
      "stateMutability": "view",
      "type": "function"
    },
    {
      "inputs": [],
      "name": "name",
      "outputs": [
        {
          "internalType": "string",
          "name": "",
          "type": "string"
        }
      ],
      "stateMutability": "view",
      "type": "function"
    },
    {
      "inputs": [
        {
          "internalType": "uint256",
          "name": "",
          "type": "uint256"
        }
      ],
      "name": "names",
      "outputs": [
        {
          "internalType": "string",
          "name": "",
          "type": "string"
        }
      ],
      "stateMutability": "view",
      "type": "function"
    },
    {
      "inputs": [],
      "name": "owner",
      "outputs": [
        {
          "internalType": "address payable",
          "name": "",
          "type": "address"
        }
      ],
      "stateMutability": "view",
      "type": "function"
    },
    {
      "inputs": [
        {
          "internalType": "uint256",
          "name": "tokenId",
          "type": "uint256"
        }
      ],
      "name": "ownerOf",
      "outputs": [
        {
          "internalType": "address",
          "name": "",
          "type": "address"
        }
      ],
      "stateMutability": "view",
      "type": "function"
    },
    {
      "inputs": [
        {
          "internalType": "string",
          "name": "name",
          "type": "string"
        }
      ],
      "name": "price",
      "outputs": [
        {
          "internalType": "uint256",
          "name": "",
          "type": "uint256"
        }
      ],
      "stateMutability": "pure",
      "type": "function"
    },
    {
      "inputs": [
        {
          "internalType": "string",
          "name": "",
          "type": "string"
        }
      ],
      "name": "records",
      "outputs": [
        {
          "internalType": "string",
          "name": "",
          "type": "string"
        }
      ],
      "stateMutability": "view",
      "type": "function"
    },
    {
      "inputs": [
        {
          "internalType": "string",
          "name": "name",
          "type": "string"
        }
      ],
      "name": "register",
      "outputs": [],
      "stateMutability": "payable",
      "type": "function"
    },
    {
      "inputs": [
        {
          "internalType": "address",
          "name": "from",
          "type": "address"
        },
        {
          "internalType": "address",
          "name": "to",
          "type": "address"
        },
        {
          "internalType": "uint256",
          "name": "tokenId",
          "type": "uint256"
        }
      ],
      "name": "safeTransferFrom",
      "outputs": [],
      "stateMutability": "nonpayable",
      "type": "function"
    },
    {
      "inputs": [
        {
          "internalType": "address",
          "name": "from",
          "type": "address"
        },
        {
          "internalType": "address",
          "name": "to",
          "type": "address"
        },
        {
          "internalType": "uint256",
          "name": "tokenId",
          "type": "uint256"
        },
        {
          "internalType": "bytes",
          "name": "_data",
          "type": "bytes"
        }
      ],
      "name": "safeTransferFrom",
      "outputs": [],
      "stateMutability": "nonpayable",
      "type": "function"
    },
    {
      "inputs": [
        {
          "internalType": "address",
          "name": "operator",
          "type": "address"
        },
        {
          "internalType": "bool",
          "name": "approved",
          "type": "bool"
        }
      ],
      "name": "setApprovalForAll",
      "outputs": [],
      "stateMutability": "nonpayable",
      "type": "function"
    },
    {
      "inputs": [
        {
          "internalType": "string",
          "name": "name",
          "type": "string"
        },
        {
          "internalType": "string",
          "name": "record",
          "type": "string"
        }
      ],
      "name": "setAvatar",
      "outputs": [],
      "stateMutability": "nonpayable",
      "type": "function"
    },
    {
      "inputs": [
        {
          "internalType": "string",
          "name": "name",
          "type": "string"
        },
        {
          "internalType": "string",
          "name": "record",
          "type": "string"
        }
      ],
      "name": "setDiscord",
      "outputs": [],
      "stateMutability": "nonpayable",
      "type": "function"
    },
    {
      "inputs": [
        {
          "internalType": "string",
          "name": "name",
          "type": "string"
        },
        {
          "internalType": "string",
          "name": "record",
          "type": "string"
        }
      ],
      "name": "setFavNFT",
      "outputs": [],
      "stateMutability": "nonpayable",
      "type": "function"
    },
    {
      "inputs": [
        {
          "internalType": "string",
          "name": "name",
          "type": "string"
        },
        {
          "internalType": "string",
          "name": "record",
          "type": "string"
        }
      ],
      "name": "setFavSong",
      "outputs": [],
      "stateMutability": "nonpayable",
      "type": "function"
    },
    {
      "inputs": [
        {
          "internalType": "string",
          "name": "name",
          "type": "string"
        },
        {
          "internalType": "string",
          "name": "record",
          "type": "string"
        }
      ],
      "name": "setRecord",
      "outputs": [],
      "stateMutability": "nonpayable",
      "type": "function"
    },
    {
      "inputs": [
        {
          "internalType": "string",
          "name": "name",
          "type": "string"
        },
        {
          "internalType": "string",
          "name": "record",
          "type": "string"
        }
      ],
      "name": "setTwitter",
      "outputs": [],
      "stateMutability": "nonpayable",
      "type": "function"
    },
    {
      "inputs": [
        {
          "internalType": "bytes4",
          "name": "interfaceId",
          "type": "bytes4"
        }
      ],
      "name": "supportsInterface",
      "outputs": [
        {
          "internalType": "bool",
          "name": "",
          "type": "bool"
        }
      ],
      "stateMutability": "view",
      "type": "function"
    },
    {
      "inputs": [],
      "name": "symbol",
      "outputs": [
        {
          "internalType": "string",
          "name": "",
          "type": "string"
        }
      ],
      "stateMutability": "view",
      "type": "function"
    },
    {
      "inputs": [],
      "name": "tld",
      "outputs": [
        {
          "internalType": "string",
          "name": "",
          "type": "string"
        }
      ],
      "stateMutability": "view",
      "type": "function"
    },
    {
      "inputs": [
        {
          "internalType": "uint256",
          "name": "tokenId",
          "type": "uint256"
        }
      ],
      "name": "tokenURI",
      "outputs": [
        {
          "internalType": "string",
          "name": "",
          "type": "string"
        }
      ],
      "stateMutability": "view",
      "type": "function"
    },
    {
      "inputs": [
        {
          "internalType": "address",
          "name": "from",
          "type": "address"
        },
        {
          "internalType": "address",
          "name": "to",
          "type": "address"
        },
        {
          "internalType": "uint256",
          "name": "tokenId",
          "type": "uint256"
        }
      ],
      "name": "transferFrom",
      "outputs": [],
      "stateMutability": "nonpayable",
      "type": "function"
    },
    {
      "inputs": [
        {
          "internalType": "string",
          "name": "",
          "type": "string"
        }
      ],
      "name": "twitters",
      "outputs": [
        {
          "internalType": "string",
          "name": "",
          "type": "string"
        }
      ],
      "stateMutability": "view",
      "type": "function"
    },
    {
      "inputs": [
        {
          "internalType": "string",
          "name": "name",
          "type": "string"
        }
      ],
      "name": "valid",
      "outputs": [
        {
          "internalType": "bool",
          "name": "",
          "type": "bool"
        }
      ],
      "stateMutability": "pure",
      "type": "function"
    },
    {
      "inputs": [],
      "name": "withdraw",
      "outputs": [],
      "stateMutability": "nonpayable",
      "type": "function"
    }
  ],
  "bytecode": "0x6080604052604051806108a0016040528061086b8152602001620062f261086b9139600a908051906020019062000038929190620002c8565b506040518060400160405280600d81526020017f3c2f746578743e3c2f7376673e00000000000000000000000000000000000000815250600b908051906020019062000086929190620002c8565b5060405162006b5d38038062006b5d8339818101604052810190620000ac919062000515565b6040518060400160405280601781526020017f43617368204d6f6e6579204e616d6520536572766963650000000000000000008152506040518060400160405280600481526020017f434d4e5300000000000000000000000000000000000000000000000000000000815250816000908051906020019062000130929190620002c8565b50806001908051906020019062000149929190620002c8565b50505033600760006101000a81548173ffffffffffffffffffffffffffffffffffffffff021916908373ffffffffffffffffffffffffffffffffffffffff1602179055508060099080519060200190620001a5929190620002c8565b50620001f26040518060400160405280601881526020017f2573206e616d652073657276696365206465706c6f796564000000000000000081525082620001f960201b62002b081760201c565b5062000663565b6200029b828260405160240162000212929190620005c3565b6040516020818303038152906040527f4b5c4277000000000000000000000000000000000000000000000000000000007bffffffffffffffffffffffffffffffffffffffffffffffffffffffff19166020820180517bffffffffffffffffffffffffffffffffffffffffffffffffffffffff83818316178352505050506200029f60201b60201c565b5050565b60008151905060006a636f6e736f6c652e6c6f679050602083016000808483855afa5050505050565b828054620002d6906200062d565b90600052602060002090601f016020900481019282620002fa576000855562000346565b82601f106200031557805160ff191683800117855562000346565b8280016001018555821562000346579182015b828111156200034557825182559160200191906001019062000328565b5b50905062000355919062000359565b5090565b5b80821115620003745760008160009055506001016200035a565b5090565b6000604051905090565b600080fd5b600080fd5b600080fd5b600080fd5b6000601f19601f8301169050919050565b7f4e487b7100000000000000000000000000000000000000000000000000000000600052604160045260246000fd5b620003e18262000396565b810181811067ffffffffffffffff82111715620004035762000402620003a7565b5b80604052505050565b60006200041862000378565b9050620004268282620003d6565b919050565b600067ffffffffffffffff821115620004495762000448620003a7565b5b620004548262000396565b9050602081019050919050565b60005b838110156200048157808201518184015260208101905062000464565b8381111562000491576000848401525b50505050565b6000620004ae620004a8846200042b565b6200040c565b905082815260208101848484011115620004cd57620004cc62000391565b5b620004da84828562000461565b509392505050565b600082601f830112620004fa57620004f96200038c565b5b81516200050c84826020860162000497565b91505092915050565b6000602082840312156200052e576200052d62000382565b5b600082015167ffffffffffffffff8111156200054f576200054e62000387565b5b6200055d84828501620004e2565b91505092915050565b600081519050919050565b600082825260208201905092915050565b60006200058f8262000566565b6200059b818562000571565b9350620005ad81856020860162000461565b620005b88162000396565b840191505092915050565b60006040820190508181036000830152620005df818562000582565b90508181036020830152620005f5818462000582565b90509392505050565b7f4e487b7100000000000000000000000000000000000000000000000000000000600052602260045260246000fd5b600060028204905060018216806200064657607f821691505b602082108114156200065d576200065c620005fe565b5b50919050565b615c7f80620006736000396000f3fe6080604052600436106102515760003560e01c806370a0823111610139578063a22cb465116100b6578063c87b56dd1161007a578063c87b56dd146109a2578063d3189e06146109df578063e985e9c514610a08578063f2c298be14610a45578063fb825e5f14610a61578063fe2c619814610a8c57610251565b8063a22cb465146108ad578063ab00d092146108d6578063b88d4fde14610913578063bf40fac11461093c578063c1880a981461097957610251565b8063936024a9116100fd578063936024a9146107a25780639539dc04146107df57806395d89b411461081c5780639791c097146108475780639bdfa43a1461088457610251565b806370a08231146106a95780637b6fa67f146106e65780637d840ed51461070f5780638da5cb5b1461074c5780638f32d59b1461077757610251565b80632d551432116101d25780634622ab03116101965780634622ab031461053b578063517b03381461057857806353e69abc146105b5578063541e771d146105f2578063543c448d1461062f5780636352211e1461066c57610251565b80632d5514321461046a5780633b6e1c97146104955780633ccfd60b146104be5780633d9647fe146104d557806342842e0e1461051257610251565b806318ca141a1161021957806318ca141a146103615780632004a9b21461039e57806323b872dd146103db578063264492351461040457806327d3f35c1461044157610251565b806301ffc9a71461025657806306fdde0314610293578063081812fc146102be578063095ea7b3146102fb57806311dd884514610324575b600080fd5b34801561026257600080fd5b5061027d60048036038101906102789190613fed565b610ac9565b60405161028a9190614035565b60405180910390f35b34801561029f57600080fd5b506102a8610bab565b6040516102b591906140e9565b60405180910390f35b3480156102ca57600080fd5b506102e560048036038101906102e09190614141565b610c3d565b6040516102f291906141af565b60405180910390f35b34801561030757600080fd5b50610322600480360381019061031d91906141f6565b610cc2565b005b34801561033057600080fd5b5061034b6004803603810190610346919061429b565b610dda565b60405161035891906140e9565b60405180910390f35b34801561036d57600080fd5b5061038860048036038101906103839190614418565b610e8d565b60405161039591906140e9565b60405180910390f35b3480156103aa57600080fd5b506103c560048036038101906103c09190614418565b610f43565b6040516103d291906140e9565b60405180910390f35b3480156103e757600080fd5b5061040260048036038101906103fd9190614461565b610ff9565b005b34801561041057600080fd5b5061042b60048036038101906104269190614418565b611059565b60405161043891906141af565b60405180910390f35b34801561044d57600080fd5b50610468600480360381019061046391906144b4565b6110a2565b005b34801561047657600080fd5b5061047f61117d565b60405161048c91906140e9565b60405180910390f35b3480156104a157600080fd5b506104bc60048036038101906104b791906144b4565b61120b565b005b3480156104ca57600080fd5b506104d36112e6565b005b3480156104e157600080fd5b506104fc60048036038101906104f79190614418565b6113ac565b60405161050991906140e9565b60405180910390f35b34801561051e57600080fd5b5061053960048036038101906105349190614461565b611462565b005b34801561054757600080fd5b50610562600480360381019061055d9190614141565b611482565b60405161056f91906140e9565b60405180910390f35b34801561058457600080fd5b5061059f600480360381019061059a919061429b565b611522565b6040516105ac91906140e9565b60405180910390f35b3480156105c157600080fd5b506105dc60048036038101906105d7919061429b565b6115d5565b6040516105e991906140e9565b60405180910390f35b3480156105fe57600080fd5b5061061960048036038101906106149190614418565b611688565b60405161062691906140e9565b60405180910390f35b34801561063b57600080fd5b506106566004803603810190610651919061429b565b61173e565b60405161066391906140e9565b60405180910390f35b34801561067857600080fd5b50610693600480360381019061068e9190614141565b6117f1565b6040516106a091906141af565b60405180910390f35b3480156106b557600080fd5b506106d060048036038101906106cb9190614535565b6118a3565b6040516106dd9190614571565b60405180910390f35b3480156106f257600080fd5b5061070d600480360381019061070891906144b4565b61195b565b005b34801561071b57600080fd5b506107366004803603810190610731919061429b565b611a36565b60405161074391906140e9565b60405180910390f35b34801561075857600080fd5b50610761611ae9565b60405161076e91906145ad565b60405180910390f35b34801561078357600080fd5b5061078c611b0f565b6040516107999190614035565b60405180910390f35b3480156107ae57600080fd5b506107c960048036038101906107c4919061429b565b611b67565b6040516107d691906140e9565b60405180910390f35b3480156107eb57600080fd5b5061080660048036038101906108019190614418565b611c1a565b60405161081391906140e9565b60405180910390f35b34801561082857600080fd5b50610831611cd0565b60405161083e91906140e9565b60405180910390f35b34801561085357600080fd5b5061086e6004803603810190610869919061429b565b611d62565b60405161087b9190614035565b60405180910390f35b34801561089057600080fd5b506108ab60048036038101906108a691906144b4565b611e16565b005b3480156108b957600080fd5b506108d460048036038101906108cf91906145f4565b611ef1565b005b3480156108e257600080fd5b506108fd60048036038101906108f89190614418565b611f07565b60405161090a91906140e9565b60405180910390f35b34801561091f57600080fd5b5061093a600480360381019061093591906146d5565b611fbd565b005b34801561094857600080fd5b50610963600480360381019061095e919061429b565b61201f565b60405161097091906141af565b60405180910390f35b34801561098557600080fd5b506109a0600480360381019061099b91906144b4565b61206a565b005b3480156109ae57600080fd5b506109c960048036038101906109c49190614141565b612145565b6040516109d691906140e9565b60405180910390f35b3480156109eb57600080fd5b50610a066004803603810190610a0191906144b4565b612297565b005b348015610a1457600080fd5b50610a2f6004803603810190610a2a9190614758565b612372565b604051610a3c9190614035565b60405180910390f35b610a5f6004803603810190610a5a919061429b565b612406565b005b348015610a6d57600080fd5b50610a76612884565b604051610a8391906148a4565b60405180910390f35b348015610a9857600080fd5b50610ab36004803603810190610aae919061429b565b612a62565b604051610ac09190614571565b60405180910390f35b60007f80ac58cd000000000000000000000000000000000000000000000000000000007bffffffffffffffffffffffffffffffffffffffffffffffffffffffff1916827bffffffffffffffffffffffffffffffffffffffffffffffffffffffff19161480610b9457507f5b5e139f000000000000000000000000000000000000000000000000000000007bffffffffffffffffffffffffffffffffffffffffffffffffffffffff1916827bffffffffffffffffffffffffffffffffffffffffffffffffffffffff1916145b80610ba45750610ba382612ba4565b5b9050919050565b606060008054610bba906148f5565b80601f0160208091040260200160405190810160405280929190818152602001828054610be6906148f5565b8015610c335780601f10610c0857610100808354040283529160200191610c33565b820191906000526020600020905b815481529060010190602001808311610c1657829003601f168201915b5050505050905090565b6000610c4882612c0e565b610c87576040517f08c379a0000000000000000000000000000000000000000000000000000000008152600401610c7e90614999565b60405180910390fd5b6004600083815260200190815260200160002060009054906101000a900473ffffffffffffffffffffffffffffffffffffffff169050919050565b6000610ccd826117f1565b90508073ffffffffffffffffffffffffffffffffffffffff168373ffffffffffffffffffffffffffffffffffffffff161415610d3e576040517f08c379a0000000000000000000000000000000000000000000000000000000008152600401610d3590614a2b565b60405180910390fd5b8073ffffffffffffffffffffffffffffffffffffffff16610d5d612c7a565b73ffffffffffffffffffffffffffffffffffffffff161480610d8c5750610d8b81610d86612c7a565b612372565b5b610dcb576040517f08c379a0000000000000000000000000000000000000000000000000000000008152600401610dc290614abd565b60405180910390fd5b610dd58383612c82565b505050565b6060600e8383604051610dee929190614b0d565b90815260200160405180910390208054610e07906148f5565b80601f0160208091040260200160405190810160405280929190818152602001828054610e33906148f5565b8015610e805780601f10610e5557610100808354040283529160200191610e80565b820191906000526020600020905b815481529060010190602001808311610e6357829003601f168201915b5050505050905092915050565b6012818051602081018201805184825260208301602085012081835280955050505050506000915090508054610ec2906148f5565b80601f0160208091040260200160405190810160405280929190818152602001828054610eee906148f5565b8015610f3b5780601f10610f1057610100808354040283529160200191610f3b565b820191906000526020600020905b815481529060010190602001808311610f1e57829003601f168201915b505050505081565b6011818051602081018201805184825260208301602085012081835280955050505050506000915090508054610f78906148f5565b80601f0160208091040260200160405190810160405280929190818152602001828054610fa4906148f5565b8015610ff15780601f10610fc657610100808354040283529160200191610ff1565b820191906000526020600020905b815481529060010190602001808311610fd457829003601f168201915b505050505081565b61100a611004612c7a565b82612d3b565b611049576040517f08c379a000000000000000000000000000000000000000000000000000000000815260040161104090614b98565b60405180910390fd5b611054838383612e19565b505050565b600c818051602081018201805184825260208301602085012081835280955050505050506000915054906101000a900473ffffffffffffffffffffffffffffffffffffffff1681565b600c84846040516110b4929190614b0d565b908152602001604051809103902060009054906101000a900473ffffffffffffffffffffffffffffffffffffffff1673ffffffffffffffffffffffffffffffffffffffff163373ffffffffffffffffffffffffffffffffffffffff1614611147576040517f82b4290000000000000000000000000000000000000000000000000000000000815260040160405180910390fd5b8181600f868660405161115b929190614b0d565b90815260200160405180910390209190611176929190613e58565b5050505050565b6009805461118a906148f5565b80601f01602080910402602001604051908101604052809291908181526020018280546111b6906148f5565b80156112035780601f106111d857610100808354040283529160200191611203565b820191906000526020600020905b8154815290600101906020018083116111e657829003601f168201915b505050505081565b600c848460405161121d929190614b0d565b908152602001604051809103902060009054906101000a900473ffffffffffffffffffffffffffffffffffffffff1673ffffffffffffffffffffffffffffffffffffffff163373ffffffffffffffffffffffffffffffffffffffff16146112b0576040517f82b4290000000000000000000000000000000000000000000000000000000000815260040160405180910390fd5b8181601186866040516112c4929190614b0d565b908152602001604051809103902091906112df929190613e58565b5050505050565b6112ee611b0f565b6112f757600080fd5b600047905060003373ffffffffffffffffffffffffffffffffffffffff168260405161132290614be9565b60006040518083038185875af1925050503d806000811461135f576040519150601f19603f3d011682016040523d82523d6000602084013e611364565b606091505b50509050806113a8576040517f08c379a000000000000000000000000000000000000000000000000000000000815260040161139f90614c4a565b60405180910390fd5b5050565b600e8180516020810182018051848252602083016020850120818352809550505050505060009150905080546113e1906148f5565b80601f016020809104026020016040519081016040528092919081815260200182805461140d906148f5565b801561145a5780601f1061142f5761010080835404028352916020019161145a565b820191906000526020600020905b81548152906001019060200180831161143d57829003601f168201915b505050505081565b61147d83838360405180602001604052806000815250611fbd565b505050565b601360205280600052604060002060009150905080546114a1906148f5565b80601f01602080910402602001604051908101604052809291908181526020018280546114cd906148f5565b801561151a5780601f106114ef5761010080835404028352916020019161151a565b820191906000526020600020905b8154815290600101906020018083116114fd57829003601f168201915b505050505081565b606060108383604051611536929190614b0d565b9081526020016040518091039020805461154f906148f5565b80601f016020809104026020016040519081016040528092919081815260200182805461157b906148f5565b80156115c85780601f1061159d576101008083540402835291602001916115c8565b820191906000526020600020905b8154815290600101906020018083116115ab57829003601f168201915b5050505050905092915050565b6060601183836040516115e9929190614b0d565b90815260200160405180910390208054611602906148f5565b80601f016020809104026020016040519081016040528092919081815260200182805461162e906148f5565b801561167b5780601f106116505761010080835404028352916020019161167b565b820191906000526020600020905b81548152906001019060200180831161165e57829003601f168201915b5050505050905092915050565b600d8180516020810182018051848252602083016020850120818352809550505050505060009150905080546116bd906148f5565b80601f01602080910402602001604051908101604052809291908181526020018280546116e9906148f5565b80156117365780601f1061170b57610100808354040283529160200191611736565b820191906000526020600020905b81548152906001019060200180831161171957829003601f168201915b505050505081565b606060128383604051611752929190614b0d565b9081526020016040518091039020805461176b906148f5565b80601f0160208091040260200160405190810160405280929190818152602001828054611797906148f5565b80156117e45780601f106117b9576101008083540402835291602001916117e4565b820191906000526020600020905b8154815290600101906020018083116117c757829003601f168201915b5050505050905092915050565b6000806002600084815260200190815260200160002060009054906101000a900473ffffffffffffffffffffffffffffffffffffffff169050600073ffffffffffffffffffffffffffffffffffffffff168173ffffffffffffffffffffffffffffffffffffffff16141561189a576040517f08c379a000000000000000000000000000000000000000000000000000000000815260040161189190614cdc565b60405180910390fd5b80915050919050565b60008073ffffffffffffffffffffffffffffffffffffffff168273ffffffffffffffffffffffffffffffffffffffff161415611914576040517f08c379a000000000000000000000000000000000000000000000000000000000815260040161190b90614d6e565b60405180910390fd5b600360008373ffffffffffffffffffffffffffffffffffffffff1673ffffffffffffffffffffffffffffffffffffffff168152602001908152602001600020549050919050565b600c848460405161196d929190614b0d565b908152602001604051809103902060009054906101000a900473ffffffffffffffffffffffffffffffffffffffff1673ffffffffffffffffffffffffffffffffffffffff163373ffffffffffffffffffffffffffffffffffffffff1614611a00576040517f82b4290000000000000000000000000000000000000000000000000000000000815260040160405180910390fd5b818160128686604051611a14929190614b0d565b90815260200160405180910390209190611a2f929190613e58565b5050505050565b6060600d8383604051611a4a929190614b0d565b90815260200160405180910390208054611a63906148f5565b80601f0160208091040260200160405190810160405280929190818152602001828054611a8f906148f5565b8015611adc5780601f10611ab157610100808354040283529160200191611adc565b820191906000526020600020905b815481529060010190602001808311611abf57829003601f168201915b5050505050905092915050565b600760009054906101000a900473ffffffffffffffffffffffffffffffffffffffff1681565b6000600760009054906101000a900473ffffffffffffffffffffffffffffffffffffffff1673ffffffffffffffffffffffffffffffffffffffff163373ffffffffffffffffffffffffffffffffffffffff1614905090565b6060600f8383604051611b7b929190614b0d565b90815260200160405180910390208054611b94906148f5565b80601f0160208091040260200160405190810160405280929190818152602001828054611bc0906148f5565b8015611c0d5780601f10611be257610100808354040283529160200191611c0d565b820191906000526020600020905b815481529060010190602001808311611bf057829003601f168201915b5050505050905092915050565b6010818051602081018201805184825260208301602085012081835280955050505050506000915090508054611c4f906148f5565b80601f0160208091040260200160405190810160405280929190818152602001828054611c7b906148f5565b8015611cc85780601f10611c9d57610100808354040283529160200191611cc8565b820191906000526020600020905b815481529060010190602001808311611cab57829003601f168201915b505050505081565b606060018054611cdf906148f5565b80601f0160208091040260200160405190810160405280929190818152602001828054611d0b906148f5565b8015611d585780601f10611d2d57610100808354040283529160200191611d58565b820191906000526020600020905b815481529060010190602001808311611d3b57829003601f168201915b5050505050905090565b60006003611db384848080601f016020809104026020016040519081016040528093929190818152602001838380828437600081840152601f19601f82011690508083019250505050505050613080565b10158015611e0e5750600a611e0b84848080601f016020809104026020016040519081016040528093929190818152602001838380828437600081840152601f19601f82011690508083019250505050505050613080565b11155b905092915050565b600c8484604051611e28929190614b0d565b908152602001604051809103902060009054906101000a900473ffffffffffffffffffffffffffffffffffffffff1673ffffffffffffffffffffffffffffffffffffffff163373ffffffffffffffffffffffffffffffffffffffff1614611ebb576040517f82b4290000000000000000000000000000000000000000000000000000000000815260040160405180910390fd5b818160108686604051611ecf929190614b0d565b90815260200160405180910390209190611eea929190613e58565b5050505050565b611f03611efc612c7a565b8383613235565b5050565b600f818051602081018201805184825260208301602085012081835280955050505050506000915090508054611f3c906148f5565b80601f0160208091040260200160405190810160405280929190818152602001828054611f68906148f5565b8015611fb55780601f10611f8a57610100808354040283529160200191611fb5565b820191906000526020600020905b815481529060010190602001808311611f9857829003601f168201915b505050505081565b611fce611fc8612c7a565b83612d3b565b61200d576040517f08c379a000000000000000000000000000000000000000000000000000000000815260040161200490614b98565b60405180910390fd5b612019848484846133a2565b50505050565b6000600c8383604051612033929190614b0d565b908152602001604051809103902060009054906101000a900473ffffffffffffffffffffffffffffffffffffffff16905092915050565b600c848460405161207c929190614b0d565b908152602001604051809103902060009054906101000a900473ffffffffffffffffffffffffffffffffffffffff1673ffffffffffffffffffffffffffffffffffffffff163373ffffffffffffffffffffffffffffffffffffffff161461210f576040517f82b4290000000000000000000000000000000000000000000000000000000000815260040160405180910390fd5b8181600d8686604051612123929190614b0d565b9081526020016040518091039020919061213e929190613e58565b5050505050565b606061215082612c0e565b61218f576040517f08c379a000000000000000000000000000000000000000000000000000000000815260040161218690614e00565b60405180910390fd5b60006006600084815260200190815260200160002080546121af906148f5565b80601f01602080910402602001604051908101604052809291908181526020018280546121db906148f5565b80156122285780601f106121fd57610100808354040283529160200191612228565b820191906000526020600020905b81548152906001019060200180831161220b57829003601f168201915b5050505050905060006122396133fe565b905060008151141561224f578192505050612292565b60008251111561228457808260405160200161226c929190614e51565b60405160208183030381529060405292505050612292565b61228d84613415565b925050505b919050565b600c84846040516122a9929190614b0d565b908152602001604051809103902060009054906101000a900473ffffffffffffffffffffffffffffffffffffffff1673ffffffffffffffffffffffffffffffffffffffff163373ffffffffffffffffffffffffffffffffffffffff161461233c576040517f82b4290000000000000000000000000000000000000000000000000000000000815260040160405180910390fd5b8181600e8686604051612350929190614b0d565b9081526020016040518091039020919061236b929190613e58565b5050505050565b6000600560008473ffffffffffffffffffffffffffffffffffffffff1673ffffffffffffffffffffffffffffffffffffffff16815260200190815260200160002060008373ffffffffffffffffffffffffffffffffffffffff1673ffffffffffffffffffffffffffffffffffffffff16815260200190815260200160002060009054906101000a900460ff16905092915050565b600073ffffffffffffffffffffffffffffffffffffffff16600c8383604051612430929190614b0d565b908152602001604051809103902060009054906101000a900473ffffffffffffffffffffffffffffffffffffffff1673ffffffffffffffffffffffffffffffffffffffff16146124ac576040517f3a81d6fc00000000000000000000000000000000000000000000000000000000815260040160405180910390fd5b6124b68282611d62565b6124f95781816040517f7f19f48d0000000000000000000000000000000000000000000000000000000081526004016124f0929190614ea2565b60405180910390fd5b60006125058383612a62565b90508034101561254a576040517f08c379a000000000000000000000000000000000000000000000000000000000815260040161254190614f12565b60405180910390fd5b60008383600960405160200161256293929190615012565b60405160208183030381529060405290506000600a82600b60405160200161258c93929190615043565b604051602081830303815290604052905060006125a960086134bc565b905060006125fa87878080601f016020809104026020016040519081016040528093929190818152602001838380828437600081840152601f19601f82011690508083019250505050505050613080565b90506000612607826134ca565b90506126fb604051806060016040528060318152602001615ba06031913989898080601f016020809104026020016040519081016040528093929190818152602001838380828437600081840152601f19601f8201169050808301925050505050505060098054612677906148f5565b80601f01602080910402602001604051908101604052809291908181526020018280546126a3906148f5565b80156126f05780601f106126c5576101008083540402835291602001916126f0565b820191906000526020600020905b8154815290600101906020018083116126d357829003601f168201915b50505050508661362b565b60006127318661270a876136cd565b8460405160200161271d93929190615216565b6040516020818303038152906040526136cd565b905060008160405160200161274691906152bf565b6040516020818303038152906040529050612778604051806060016040528060398152602001615b6760399139613865565b6127b76040518060400160405280600e81526020017f46696e616c20746f6b656e55524900000000000000000000000000000000000081525082612b08565b6127d8604051806060016040528060398152602001615bd160399139613865565b6127e233866138fe565b6127ec858261391c565b33600c8b8b6040516127ff929190614b0d565b908152602001604051809103902060006101000a81548173ffffffffffffffffffffffffffffffffffffffff021916908373ffffffffffffffffffffffffffffffffffffffff160217905550898960136000888152602001908152602001600020919061286d929190613e58565b506128786008613990565b50505050505050505050565b60606128c46040518060400160405280601f81526020017f47657474696e6720616c6c206e616d65732066726f6d20636f6e747261637400815250613865565b60006128d060086134bc565b67ffffffffffffffff8111156128e9576128e86142ed565b5b60405190808252806020026020018201604052801561291c57816020015b60608152602001906001900390816129075790505b50905060005b61292c60086134bc565b811015612a5a57601360008281526020019081526020016000208054612951906148f5565b80601f016020809104026020016040519081016040528092919081815260200182805461297d906148f5565b80156129ca5780601f1061299f576101008083540402835291602001916129ca565b820191906000526020600020905b8154815290600101906020018083116129ad57829003601f168201915b50505050508282815181106129e2576129e16152e1565b5b6020026020010181905250612a476040518060400160405280601781526020017f4e616d6520666f7220746f6b656e20256420697320257300000000000000000081525082848481518110612a3a57612a396152e1565b5b60200260200101516139a6565b8080612a529061533f565b915050612922565b508091505090565b600080612ab284848080601f016020809104026020016040519081016040528093929190818152602001838380828437600081840152601f19601f82011690508083019250505050505050613080565b905060008111612ac157600080fd5b6003811415612adb576706f05b59d3b20000915050612b02565b6004811415612af557670429d069189e0000915050612b02565b67016345785d8a00009150505b92915050565b612ba08282604051602401612b1e929190615388565b6040516020818303038152906040527f4b5c4277000000000000000000000000000000000000000000000000000000007bffffffffffffffffffffffffffffffffffffffffffffffffffffffff19166020820180517bffffffffffffffffffffffffffffffffffffffffffffffffffffffff8381831617835250505050613a45565b5050565b60007f01ffc9a7000000000000000000000000000000000000000000000000000000007bffffffffffffffffffffffffffffffffffffffffffffffffffffffff1916827bffffffffffffffffffffffffffffffffffffffffffffffffffffffff1916149050919050565b60008073ffffffffffffffffffffffffffffffffffffffff166002600084815260200190815260200160002060009054906101000a900473ffffffffffffffffffffffffffffffffffffffff1673ffffffffffffffffffffffffffffffffffffffff1614159050919050565b600033905090565b816004600083815260200190815260200160002060006101000a81548173ffffffffffffffffffffffffffffffffffffffff021916908373ffffffffffffffffffffffffffffffffffffffff160217905550808273ffffffffffffffffffffffffffffffffffffffff16612cf5836117f1565b73ffffffffffffffffffffffffffffffffffffffff167f8c5be1e5ebec7d5bd14f71427d1e84f3dd0314c0f7b2291e5b200ac8c7c3b92560405160405180910390a45050565b6000612d4682612c0e565b612d85576040517f08c379a0000000000000000000000000000000000000000000000000000000008152600401612d7c90615431565b60405180910390fd5b6000612d90836117f1565b90508073ffffffffffffffffffffffffffffffffffffffff168473ffffffffffffffffffffffffffffffffffffffff161480612dff57508373ffffffffffffffffffffffffffffffffffffffff16612de784610c3d565b73ffffffffffffffffffffffffffffffffffffffff16145b80612e105750612e0f8185612372565b5b91505092915050565b8273ffffffffffffffffffffffffffffffffffffffff16612e39826117f1565b73ffffffffffffffffffffffffffffffffffffffff1614612e8f576040517f08c379a0000000000000000000000000000000000000000000000000000000008152600401612e86906154c3565b60405180910390fd5b600073ffffffffffffffffffffffffffffffffffffffff168273ffffffffffffffffffffffffffffffffffffffff161415612eff576040517f08c379a0000000000000000000000000000000000000000000000000000000008152600401612ef690615555565b60405180910390fd5b612f0a838383613a6e565b612f15600082612c82565b6001600360008573ffffffffffffffffffffffffffffffffffffffff1673ffffffffffffffffffffffffffffffffffffffff1681526020019081526020016000206000828254612f659190615575565b925050819055506001600360008473ffffffffffffffffffffffffffffffffffffffff1673ffffffffffffffffffffffffffffffffffffffff1681526020019081526020016000206000828254612fbc91906155a9565b92505081905550816002600083815260200190815260200160002060006101000a81548173ffffffffffffffffffffffffffffffffffffffff021916908373ffffffffffffffffffffffffffffffffffffffff160217905550808273ffffffffffffffffffffffffffffffffffffffff168473ffffffffffffffffffffffffffffffffffffffff167fddf252ad1be2c89b69c2b068fc378daa952ba7f163c4a11628f55a4df523b3ef60405160405180910390a461307b838383613a73565b505050565b60008060008084519050600092505b8082101561322a5760008583815181106130ac576130ab6152e1565b5b602001015160f81c60f81b9050608060f81b817effffffffffffffffffffffffffffffffffffffffffffffffffffffffffffff191610156130fb576001836130f491906155a9565b9250613216565b60e060f81b817effffffffffffffffffffffffffffffffffffffffffffffffffffffffffffff1916101561313d5760028361313691906155a9565b9250613215565b60f060f81b817effffffffffffffffffffffffffffffffffffffffffffffffffffffffffffff1916101561317f5760038361317891906155a9565b9250613214565b60f8801b817effffffffffffffffffffffffffffffffffffffffffffffffffffffffffffff191610156131c0576004836131b991906155a9565b9250613213565b60fc60f81b817effffffffffffffffffffffffffffffffffffffffffffffffffffffffffffff19161015613202576005836131fb91906155a9565b9250613212565b60068361320f91906155a9565b92505b5b5b5b5b5082806132229061533f565b93505061308f565b829350505050919050565b8173ffffffffffffffffffffffffffffffffffffffff168373ffffffffffffffffffffffffffffffffffffffff1614156132a4576040517f08c379a000000000000000000000000000000000000000000000000000000000815260040161329b9061564b565b60405180910390fd5b80600560008573ffffffffffffffffffffffffffffffffffffffff1673ffffffffffffffffffffffffffffffffffffffff16815260200190815260200160002060008473ffffffffffffffffffffffffffffffffffffffff1673ffffffffffffffffffffffffffffffffffffffff16815260200190815260200160002060006101000a81548160ff0219169083151502179055508173ffffffffffffffffffffffffffffffffffffffff168373ffffffffffffffffffffffffffffffffffffffff167f17307eab39ab6107e8899845ad3d59bd9653f200f220920489ca2b5937696c31836040516133959190614035565b60405180910390a3505050565b6133ad848484612e19565b6133b984848484613a78565b6133f8576040517f08c379a00000000000000000000000000000000000000000000000000000000081526004016133ef906156dd565b60405180910390fd5b50505050565b606060405180602001604052806000815250905090565b606061342082612c0e565b61345f576040517f08c379a00000000000000000000000000000000000000000000000000000000081526004016134569061576f565b60405180910390fd5b60006134696133fe565b9050600081511161348957604051806020016040528060008152506134b4565b80613493846134ca565b6040516020016134a4929190614e51565b6040516020818303038152906040525b915050919050565b600081600001549050919050565b60606000821415613512576040518060400160405280600181526020017f30000000000000000000000000000000000000000000000000000000000000008152509050613626565b600082905060005b6000821461354457808061352d9061533f565b915050600a8261353d91906157be565b915061351a565b60008167ffffffffffffffff8111156135605761355f6142ed565b5b6040519080825280601f01601f1916602001820160405280156135925781602001600182028036833780820191505090505b5090505b6000851461361f576001826135ab9190615575565b9150600a856135ba91906157ef565b60306135c691906155a9565b60f81b8183815181106135dc576135db6152e1565b5b60200101907effffffffffffffffffffffffffffffffffffffffffffffffffffffffffffff1916908160001a905350600a8561361891906157be565b9450613596565b8093505050505b919050565b6136c7848484846040516024016136459493929190615820565b6040516020818303038152906040527f9fd009f5000000000000000000000000000000000000000000000000000000007bffffffffffffffffffffffffffffffffffffffffffffffffffffffff19166020820180517bffffffffffffffffffffffffffffffffffffffffffffffffffffffff8381831617835250505050613a45565b50505050565b606060008251905060008114156136f65760405180602001604052806000815250915050613860565b6000600360028361370791906155a9565b61371191906157be565b600461371d919061587a565b9050600060208261372e91906155a9565b67ffffffffffffffff811115613747576137466142ed565b5b6040519080825280601f01601f1916602001820160405280156137795781602001600182028036833780820191505090505b5090506000604051806060016040528060408152602001615c0a604091399050600181016020830160005b8681101561381d5760038101905062ffffff818a015116603f8160121c168401518060081b905060ff603f83600c1c1686015116810190508060081b905060ff603f8360061c1686015116810190508060081b905060ff603f831686015116810190508060e01b905080845260048401935050506137a4565b506003860660018114613837576002811461384757613852565b613d3d60f01b6002830352613852565b603d60f81b60018303525b508484525050819450505050505b919050565b6138fb8160405160240161387991906140e9565b6040516020818303038152906040527f41304fac000000000000000000000000000000000000000000000000000000007bffffffffffffffffffffffffffffffffffffffffffffffffffffffff19166020820180517bffffffffffffffffffffffffffffffffffffffffffffffffffffffff8381831617835250505050613a45565b50565b613918828260405180602001604052806000815250613c00565b5050565b61392582612c0e565b613964576040517f08c379a000000000000000000000000000000000000000000000000000000000815260040161395b90615946565b60405180910390fd5b8060066000848152602001908152602001600020908051906020019061398b929190613ede565b505050565b6001816000016000828254019250508190555050565b613a408383836040516024016139be93929190615966565b6040516020818303038152906040527fa3f5c739000000000000000000000000000000000000000000000000000000007bffffffffffffffffffffffffffffffffffffffffffffffffffffffff19166020820180517bffffffffffffffffffffffffffffffffffffffffffffffffffffffff8381831617835250505050613a45565b505050565b60008151905060006a636f6e736f6c652e6c6f679050602083016000808483855afa5050505050565b505050565b505050565b6000613a998473ffffffffffffffffffffffffffffffffffffffff16613c5b565b15613bf3578373ffffffffffffffffffffffffffffffffffffffff1663150b7a02613ac2612c7a565b8786866040518563ffffffff1660e01b8152600401613ae49493929190615a00565b6020604051808303816000875af1925050508015613b2057506040513d601f19601f82011682018060405250810190613b1d9190615a61565b60015b613ba3573d8060008114613b50576040519150601f19603f3d011682016040523d82523d6000602084013e613b55565b606091505b50600081511415613b9b576040517f08c379a0000000000000000000000000000000000000000000000000000000008152600401613b92906156dd565b60405180910390fd5b805181602001fd5b63150b7a0260e01b7bffffffffffffffffffffffffffffffffffffffffffffffffffffffff1916817bffffffffffffffffffffffffffffffffffffffffffffffffffffffff191614915050613bf8565b600190505b949350505050565b613c0a8383613c7e565b613c176000848484613a78565b613c56576040517f08c379a0000000000000000000000000000000000000000000000000000000008152600401613c4d906156dd565b60405180910390fd5b505050565b6000808273ffffffffffffffffffffffffffffffffffffffff163b119050919050565b600073ffffffffffffffffffffffffffffffffffffffff168273ffffffffffffffffffffffffffffffffffffffff161415613cee576040517f08c379a0000000000000000000000000000000000000000000000000000000008152600401613ce590615ada565b60405180910390fd5b613cf781612c0e565b15613d37576040517f08c379a0000000000000000000000000000000000000000000000000000000008152600401613d2e90615b46565b60405180910390fd5b613d4360008383613a6e565b6001600360008473ffffffffffffffffffffffffffffffffffffffff1673ffffffffffffffffffffffffffffffffffffffff1681526020019081526020016000206000828254613d9391906155a9565b92505081905550816002600083815260200190815260200160002060006101000a81548173ffffffffffffffffffffffffffffffffffffffff021916908373ffffffffffffffffffffffffffffffffffffffff160217905550808273ffffffffffffffffffffffffffffffffffffffff16600073ffffffffffffffffffffffffffffffffffffffff167fddf252ad1be2c89b69c2b068fc378daa952ba7f163c4a11628f55a4df523b3ef60405160405180910390a4613e5460008383613a73565b5050565b828054613e64906148f5565b90600052602060002090601f016020900481019282613e865760008555613ecd565b82601f10613e9f57803560ff1916838001178555613ecd565b82800160010185558215613ecd579182015b82811115613ecc578235825591602001919060010190613eb1565b5b509050613eda9190613f64565b5090565b828054613eea906148f5565b90600052602060002090601f016020900481019282613f0c5760008555613f53565b82601f10613f2557805160ff1916838001178555613f53565b82800160010185558215613f53579182015b82811115613f52578251825591602001919060010190613f37565b5b509050613f609190613f64565b5090565b5b80821115613f7d576000816000905550600101613f65565b5090565b6000604051905090565b600080fd5b600080fd5b60007fffffffff0000000000000000000000000000000000000000000000000000000082169050919050565b613fca81613f95565b8114613fd557600080fd5b50565b600081359050613fe781613fc1565b92915050565b60006020828403121561400357614002613f8b565b5b600061401184828501613fd8565b91505092915050565b60008115159050919050565b61402f8161401a565b82525050565b600060208201905061404a6000830184614026565b92915050565b600081519050919050565b600082825260208201905092915050565b60005b8381101561408a57808201518184015260208101905061406f565b83811115614099576000848401525b50505050565b6000601f19601f8301169050919050565b60006140bb82614050565b6140c5818561405b565b93506140d581856020860161406c565b6140de8161409f565b840191505092915050565b6000602082019050818103600083015261410381846140b0565b905092915050565b6000819050919050565b61411e8161410b565b811461412957600080fd5b50565b60008135905061413b81614115565b92915050565b60006020828403121561415757614156613f8b565b5b60006141658482850161412c565b91505092915050565b600073ffffffffffffffffffffffffffffffffffffffff82169050919050565b60006141998261416e565b9050919050565b6141a98161418e565b82525050565b60006020820190506141c460008301846141a0565b92915050565b6141d38161418e565b81146141de57600080fd5b50565b6000813590506141f0816141ca565b92915050565b6000806040838503121561420d5761420c613f8b565b5b600061421b858286016141e1565b925050602061422c8582860161412c565b9150509250929050565b600080fd5b600080fd5b600080fd5b60008083601f84011261425b5761425a614236565b5b8235905067ffffffffffffffff8111156142785761427761423b565b5b60208301915083600182028301111561429457614293614240565b5b9250929050565b600080602083850312156142b2576142b1613f8b565b5b600083013567ffffffffffffffff8111156142d0576142cf613f90565b5b6142dc85828601614245565b92509250509250929050565b600080fd5b7f4e487b7100000000000000000000000000000000000000000000000000000000600052604160045260246000fd5b6143258261409f565b810181811067ffffffffffffffff82111715614344576143436142ed565b5b80604052505050565b6000614357613f81565b9050614363828261431c565b919050565b600067ffffffffffffffff821115614383576143826142ed565b5b61438c8261409f565b9050602081019050919050565b82818337600083830152505050565b60006143bb6143b684614368565b61434d565b9050828152602081018484840111156143d7576143d66142e8565b5b6143e2848285614399565b509392505050565b600082601f8301126143ff576143fe614236565b5b813561440f8482602086016143a8565b91505092915050565b60006020828403121561442e5761442d613f8b565b5b600082013567ffffffffffffffff81111561444c5761444b613f90565b5b614458848285016143ea565b91505092915050565b60008060006060848603121561447a57614479613f8b565b5b6000614488868287016141e1565b9350506020614499868287016141e1565b92505060406144aa8682870161412c565b9150509250925092565b600080600080604085870312156144ce576144cd613f8b565b5b600085013567ffffffffffffffff8111156144ec576144eb613f90565b5b6144f887828801614245565b9450945050602085013567ffffffffffffffff81111561451b5761451a613f90565b5b61452787828801614245565b925092505092959194509250565b60006020828403121561454b5761454a613f8b565b5b6000614559848285016141e1565b91505092915050565b61456b8161410b565b82525050565b60006020820190506145866000830184614562565b92915050565b60006145978261416e565b9050919050565b6145a78161458c565b82525050565b60006020820190506145c2600083018461459e565b92915050565b6145d18161401a565b81146145dc57600080fd5b50565b6000813590506145ee816145c8565b92915050565b6000806040838503121561460b5761460a613f8b565b5b6000614619858286016141e1565b925050602061462a858286016145df565b9150509250929050565b600067ffffffffffffffff82111561464f5761464e6142ed565b5b6146588261409f565b9050602081019050919050565b600061467861467384614634565b61434d565b905082815260208101848484011115614694576146936142e8565b5b61469f848285614399565b509392505050565b600082601f8301126146bc576146bb614236565b5b81356146cc848260208601614665565b91505092915050565b600080600080608085870312156146ef576146ee613f8b565b5b60006146fd878288016141e1565b945050602061470e878288016141e1565b935050604061471f8782880161412c565b925050606085013567ffffffffffffffff8111156147405761473f613f90565b5b61474c878288016146a7565b91505092959194509250565b6000806040838503121561476f5761476e613f8b565b5b600061477d858286016141e1565b925050602061478e858286016141e1565b9150509250929050565b600081519050919050565b600082825260208201905092915050565b6000819050602082019050919050565b600082825260208201905092915050565b60006147e082614050565b6147ea81856147c4565b93506147fa81856020860161406c565b6148038161409f565b840191505092915050565b600061481a83836147d5565b905092915050565b6000602082019050919050565b600061483a82614798565b61484481856147a3565b935083602082028501614856856147b4565b8060005b858110156148925784840389528151614873858261480e565b945061487e83614822565b925060208a0199505060018101905061485a565b50829750879550505050505092915050565b600060208201905081810360008301526148be818461482f565b905092915050565b7f4e487b7100000000000000000000000000000000000000000000000000000000600052602260045260246000fd5b6000600282049050600182168061490d57607f821691505b60208210811415614921576149206148c6565b5b50919050565b7f4552433732313a20617070726f76656420717565727920666f72206e6f6e657860008201527f697374656e7420746f6b656e0000000000000000000000000000000000000000602082015250565b6000614983602c8361405b565b915061498e82614927565b604082019050919050565b600060208201905081810360008301526149b281614976565b9050919050565b7f4552433732313a20617070726f76616c20746f2063757272656e74206f776e6560008201527f7200000000000000000000000000000000000000000000000000000000000000602082015250565b6000614a1560218361405b565b9150614a20826149b9565b604082019050919050565b60006020820190508181036000830152614a4481614a08565b9050919050565b7f4552433732313a20617070726f76652063616c6c6572206973206e6f74206f7760008201527f6e6572206e6f7220617070726f76656420666f7220616c6c0000000000000000602082015250565b6000614aa760388361405b565b9150614ab282614a4b565b604082019050919050565b60006020820190508181036000830152614ad681614a9a565b9050919050565b600081905092915050565b6000614af48385614add565b9350614b01838584614399565b82840190509392505050565b6000614b1a828486614ae8565b91508190509392505050565b7f4552433732313a207472616e736665722063616c6c6572206973206e6f74206f60008201527f776e6572206e6f7220617070726f766564000000000000000000000000000000602082015250565b6000614b8260318361405b565b9150614b8d82614b26565b604082019050919050565b60006020820190508181036000830152614bb181614b75565b9050919050565b600081905092915050565b50565b6000614bd3600083614bb8565b9150614bde82614bc3565b600082019050919050565b6000614bf482614bc6565b9150819050919050565b7f4661696c656420746f207769746864726177204d617469630000000000000000600082015250565b6000614c3460188361405b565b9150614c3f82614bfe565b602082019050919050565b60006020820190508181036000830152614c6381614c27565b9050919050565b7f4552433732313a206f776e657220717565727920666f72206e6f6e657869737460008201527f656e7420746f6b656e0000000000000000000000000000000000000000000000602082015250565b6000614cc660298361405b565b9150614cd182614c6a565b604082019050919050565b60006020820190508181036000830152614cf581614cb9565b9050919050565b7f4552433732313a2062616c616e636520717565727920666f7220746865207a6560008201527f726f206164647265737300000000000000000000000000000000000000000000602082015250565b6000614d58602a8361405b565b9150614d6382614cfc565b604082019050919050565b60006020820190508181036000830152614d8781614d4b565b9050919050565b7f45524337323155524953746f726167653a2055524920717565727920666f722060008201527f6e6f6e6578697374656e7420746f6b656e000000000000000000000000000000602082015250565b6000614dea60318361405b565b9150614df582614d8e565b604082019050919050565b60006020820190508181036000830152614e1981614ddd565b9050919050565b6000614e2b82614050565b614e358185614add565b9350614e4581856020860161406c565b80840191505092915050565b6000614e5d8285614e20565b9150614e698284614e20565b91508190509392505050565b6000614e81838561405b565b9350614e8e838584614399565b614e978361409f565b840190509392505050565b60006020820190508181036000830152614ebd818486614e75565b90509392505050565b7f4e6f7420656e6f756768204d6174696320706169640000000000000000000000600082015250565b6000614efc60158361405b565b9150614f0782614ec6565b602082019050919050565b60006020820190508181036000830152614f2b81614eef565b9050919050565b7f2e00000000000000000000000000000000000000000000000000000000000000600082015250565b6000614f68600183614add565b9150614f7382614f32565b600182019050919050565b60008190508160005260206000209050919050565b60008154614fa0816148f5565b614faa8186614add565b94506001821660008114614fc55760018114614fd657615009565b60ff19831686528186019350615009565b614fdf85614f7e565b60005b8381101561500157815481890152600182019150602081019050614fe2565b838801955050505b50505092915050565b600061501f828587614ae8565b915061502a82614f5b565b91506150368284614f93565b9150819050949350505050565b600061504f8286614f93565b915061505b8285614e20565b91506150678284614f93565b9150819050949350505050565b7f7b226e616d65223a202200000000000000000000000000000000000000000000600082015250565b60006150aa600a83614add565b91506150b582615074565b600a82019050919050565b7f222c20226465736372697074696f6e223a20224120646f6d61696e206f6e207460008201527f68652043617368204d6f6e6579206e616d652073657276696365222c2022696d60208201527f616765223a2022646174613a696d6167652f7376672b786d6c3b62617365363460408201527f2c00000000000000000000000000000000000000000000000000000000000000606082015250565b6000615168606183614add565b9150615173826150c0565b606182019050919050565b7f222c226c656e677468223a220000000000000000000000000000000000000000600082015250565b60006151b4600c83614add565b91506151bf8261517e565b600c82019050919050565b7f227d000000000000000000000000000000000000000000000000000000000000600082015250565b6000615200600283614add565b915061520b826151ca565b600282019050919050565b60006152218261509d565b915061522d8286614e20565b91506152388261515b565b91506152448285614e20565b915061524f826151a7565b915061525b8284614e20565b9150615266826151f3565b9150819050949350505050565b7f646174613a6170706c69636174696f6e2f6a736f6e3b6261736536342c000000600082015250565b60006152a9601d83614add565b91506152b482615273565b601d82019050919050565b60006152ca8261529c565b91506152d68284614e20565b915081905092915050565b7f4e487b7100000000000000000000000000000000000000000000000000000000600052603260045260246000fd5b7f4e487b7100000000000000000000000000000000000000000000000000000000600052601160045260246000fd5b600061534a8261410b565b91507fffffffffffffffffffffffffffffffffffffffffffffffffffffffffffffffff82141561537d5761537c615310565b5b600182019050919050565b600060408201905081810360008301526153a281856140b0565b905081810360208301526153b681846140b0565b90509392505050565b7f4552433732313a206f70657261746f7220717565727920666f72206e6f6e657860008201527f697374656e7420746f6b656e0000000000000000000000000000000000000000602082015250565b600061541b602c8361405b565b9150615426826153bf565b604082019050919050565b6000602082019050818103600083015261544a8161540e565b9050919050565b7f4552433732313a207472616e736665722066726f6d20696e636f72726563742060008201527f6f776e6572000000000000000000000000000000000000000000000000000000602082015250565b60006154ad60258361405b565b91506154b882615451565b604082019050919050565b600060208201905081810360008301526154dc816154a0565b9050919050565b7f4552433732313a207472616e7366657220746f20746865207a65726f2061646460008201527f7265737300000000000000000000000000000000000000000000000000000000602082015250565b600061553f60248361405b565b915061554a826154e3565b604082019050919050565b6000602082019050818103600083015261556e81615532565b9050919050565b60006155808261410b565b915061558b8361410b565b92508282101561559e5761559d615310565b5b828203905092915050565b60006155b48261410b565b91506155bf8361410b565b9250827fffffffffffffffffffffffffffffffffffffffffffffffffffffffffffffffff038211156155f4576155f3615310565b5b828201905092915050565b7f4552433732313a20617070726f766520746f2063616c6c657200000000000000600082015250565b600061563560198361405b565b9150615640826155ff565b602082019050919050565b6000602082019050818103600083015261566481615628565b9050919050565b7f4552433732313a207472616e7366657220746f206e6f6e20455243373231526560008201527f63656976657220696d706c656d656e7465720000000000000000000000000000602082015250565b60006156c760328361405b565b91506156d28261566b565b604082019050919050565b600060208201905081810360008301526156f6816156ba565b9050919050565b7f4552433732314d657461646174613a2055524920717565727920666f72206e6f60008201527f6e6578697374656e7420746f6b656e0000000000000000000000000000000000602082015250565b6000615759602f8361405b565b9150615764826156fd565b604082019050919050565b600060208201905081810360008301526157888161574c565b9050919050565b7f4e487b7100000000000000000000000000000000000000000000000000000000600052601260045260246000fd5b60006157c98261410b565b91506157d48361410b565b9250826157e4576157e361578f565b5b828204905092915050565b60006157fa8261410b565b91506158058361410b565b9250826158155761581461578f565b5b828206905092915050565b6000608082019050818103600083015261583a81876140b0565b9050818103602083015261584e81866140b0565b9050818103604083015261586281856140b0565b90506158716060830184614562565b95945050505050565b60006158858261410b565b91506158908361410b565b9250817fffffffffffffffffffffffffffffffffffffffffffffffffffffffffffffffff04831182151516156158c9576158c8615310565b5b828202905092915050565b7f45524337323155524953746f726167653a2055524920736574206f66206e6f6e60008201527f6578697374656e7420746f6b656e000000000000000000000000000000000000602082015250565b6000615930602e8361405b565b915061593b826158d4565b604082019050919050565b6000602082019050818103600083015261595f81615923565b9050919050565b6000606082019050818103600083015261598081866140b0565b905061598f6020830185614562565b81810360408301526159a181846140b0565b9050949350505050565b600081519050919050565b600082825260208201905092915050565b60006159d2826159ab565b6159dc81856159b6565b93506159ec81856020860161406c565b6159f58161409f565b840191505092915050565b6000608082019050615a1560008301876141a0565b615a2260208301866141a0565b615a2f6040830185614562565b8181036060830152615a4181846159c7565b905095945050505050565b600081519050615a5b81613fc1565b92915050565b600060208284031215615a7757615a76613f8b565b5b6000615a8584828501615a4c565b91505092915050565b7f4552433732313a206d696e7420746f20746865207a65726f2061646472657373600082015250565b6000615ac460208361405b565b9150615acf82615a8e565b602082019050919050565b60006020820190508181036000830152615af381615ab7565b9050919050565b7f4552433732313a20746f6b656e20616c7265616479206d696e74656400000000600082015250565b6000615b30601c8361405b565b9150615b3b82615afa565b602082019050919050565b60006020820190508181036000830152615b5f81615b23565b905091905056fe0a2d2d2d2d2d2d2d2d2d2d2d2d2d2d2d2d2d2d2d2d2d2d2d2d2d2d2d2d2d2d2d2d2d2d2d2d2d2d2d2d2d2d2d2d2d2d2d2d2d2d2d2d2d2d2d2d5265676973746572696e672025732e2573206f6e2074686520636f6e7472616374207769746820746f6b656e49442025642d2d2d2d2d2d2d2d2d2d2d2d2d2d2d2d2d2d2d2d2d2d2d2d2d2d2d2d2d2d2d2d2d2d2d2d2d2d2d2d2d2d2d2d2d2d2d2d2d2d2d2d2d2d2d2d0a4142434445464748494a4b4c4d4e4f505152535455565758595a6162636465666768696a6b6c6d6e6f707172737475767778797a303132333435363738392b2fa26469706673582212205cbd6aa9c603d253850ced0cee6468e8a7efce811347b1321484a01371a6e6a164736f6c634300080a00333c73766720786d6c6e733d22687474703a2f2f7777772e77332e6f72672f323030302f737667222077696474683d2232373022206865696768743d22323730222066696c6c3d226e6f6e65223e3c706174682066696c6c3d2275726c282342292220643d224d302030683237307632373048307a222f3e3c646566733e3c66696c7465722069643d22412220636f6c6f722d696e746572706f6c6174696f6e2d66696c746572733d2273524742222066696c746572556e6974733d227573657253706163654f6e55736522206865696768743d22323730222077696474683d22323730223e3c666544726f70536861646f772064783d2230222064793d22312220737464446576696174696f6e3d22322220666c6f6f642d6f7061636974793d222e323235222077696474683d223230302522206865696768743d2232303025222f3e3c2f66696c7465723e3c2f646566733e3c7061746820643d224d37322e3836332034322e393439632d2e3636382d2e3338372d312e3432362d2e35392d322e3139372d2e3539732d312e3532392e3230342d322e3139372e35396c2d31302e30383120362e3033322d362e383520332e3933342d31302e30383120362e303332632d2e3636382e3338372d312e3432362e35392d322e3139372e3539732d312e3532392d2e3230342d322e3139372d2e35396c2d382e3031332d342e37323161342e353220342e35322030203020312d312e3538392d312e363136632d2e3338342d2e3636352d2e3539342d312e3431382d2e3630382d322e313837762d392e3331632d2e3031332d2e3737352e3138352d312e3533382e3537322d322e32303861342e323520342e323520302030203120312e3632352d312e3539356c372e3838342d342e3539632e3636382d2e33383720312e3432362d2e353920322e3139372d2e353973312e3532392e32303420322e3139372e35396c372e38383420342e353961342e353220342e353220302030203120312e35383920312e363136632e3338342e3636352e35393420312e3431382e36303820322e31383776362e3033326c362e38352d342e303635762d362e303332632e3031332d2e3737352d2e3138352d312e3533382d2e3537322d322e32303861342e323520342e32352030203020302d312e3632352d312e3539354c34312e3435362032342e3539632d2e3636382d2e3338372d312e3432362d2e35392d322e3139372d2e3539732d312e3532392e3230342d322e3139372e35396c2d31342e38363420382e36353561342e323520342e32352030203020302d312e36323520312e353935632d2e3338372e36372d2e35383520312e3433342d2e35373220322e3230387631372e343431632d2e3031332e3737352e31383520312e3533382e35373220322e32303861342e323520342e323520302030203020312e36323520312e3539356c31342e38363420382e363535632e3636382e33383720312e3432362e353920322e3139372e353973312e3532392d2e32303420322e3139372d2e35396c31302e3038312d352e39303120362e38352d342e3036352031302e3038312d352e393031632e3636382d2e33383720312e3432362d2e353920322e3139372d2e353973312e3532392e32303420322e3139372e35396c372e38383420342e353961342e353220342e353220302030203120312e35383920312e363136632e3338342e3636352e35393420312e3431382e36303820322e31383776392e333131632e3031332e3737352d2e31383520312e3533382d2e35373220322e32303861342e323520342e32352030203020312d312e36323520312e3539356c2d372e38383420342e373231632d2e3636382e3338372d312e3432362e35392d322e3139372e3539732d312e3532392d2e3230342d322e3139372d2e35396c2d372e3838342d342e353961342e353220342e35322030203020312d312e3538392d312e363136632d2e3338352d2e3636352d2e3539342d312e3431382d2e3630382d322e313837762d362e3033326c2d362e383520342e30363576362e303332632d2e3031332e3737352e31383520312e3533382e35373220322e32303861342e323520342e323520302030203020312e36323520312e3539356c31342e38363420382e363535632e3636382e33383720312e3432362e353920322e3139372e353973312e3532392d2e32303420322e3139372d2e35396c31342e3836342d382e363535632e3635372d2e33393420312e3230342d2e393520312e3538392d312e363136732e3539342d312e3431382e3630392d322e3138375635352e353338632e3031332d2e3737352d2e3138352d312e3533382d2e3537322d322e32303861342e323520342e32352030203020302d312e3632352d312e3539356c2d31342e3939332d382e3738367a222066696c6c3d2223666666222f3e3c646566733e3c6c696e6561724772616469656e742069643d2242222078313d2230222079313d2230222078323d22323730222079323d2232373022206772616469656e74556e6974733d227573657253706163654f6e557365223e3c73746f702073746f702d636f6c6f723d2223636235656565222f3e3c73746f70206f66667365743d2231222073746f702d636f6c6f723d2223306364376534222073746f702d6f7061636974793d222e3939222f3e3c2f6c696e6561724772616469656e743e3c2f646566733e3c7465787420783d2233322e352220793d223233312220666f6e742d73697a653d223230222066696c6c3d2223666666222066696c7465723d2275726c282341292220666f6e742d66616d696c793d22506c7573204a616b617274612053616e732c44656a6156752053616e732c4e6f746f20436f6c6f7220456d6f6a692c4170706c6520436f6c6f7220456d6f6a692c73616e732d73657269662220666f6e742d7765696768743d22626f6c64223e",
  "linkReferences": {},
  "deployedLinkReferences": {}
}